:100000000C945E000C9486000C9486000C94860080
:100010000C9486000C9486000C9486000C94860048
:100020000C9486000C9486000C9486000C94860038
:100030000C9486000C9486000C9486000C94860028
:100040000C94B1050C9486000C9486000C948600E8
:100050000C9486000C9486000C9486000C94860008
:100060000C9486000C948600000000080002010039
:100070000003040700000000000000000102040863
:100080001020408001020408102001020408102002
:10009000040404040404040402020202020203032E
:1000A0000303030300000000250028002B000000CC
:1000B0000000240027002A00BD00ED0011241FBE0F
:1000C000CFEFD8E0DEBFCDBF11E0A0E0B1E0E6E8C1
:1000D000F2E102C005900D92A431B107D9F721E0F9
:1000E000A4E1B1E001C01D92A236B207E1F710E031
:1000F000CAEBD0E004C02297FE010E949007C83BE3
:10010000D107C9F70E94A0050C9436090C94000091
:10011000109215011092140186E191E00C940701F0
:10012000609114017091150144E050E086E191E086
:100130000C947B01809114019091150120910A018A
:1001400030910B01820F931F883823E192072CF422
:10015000909315018093140104C010921501109220
:1001600014010E94900060910A0170910B01882790
:1001700077FD8095982F0C941E06CF93DF93CDB713
:10018000DEB765970FB6F894DEBF0FBECDBF22E590
:1001900030E046E062E370E080E491E00E944C04CD
:1001A00085E1E0E4F1E0DE01119601900D928A957F
:1001B000E1F7BE016F5F7F4F86E191E00E944B0146
:1001C000CE0101960E94C00265960FB6F894DEBF7C
:1001D0000FBECDBFDF91CF91089586E191E00E94DF
:1001E000F50080E491E00C94C00220E131E0FC01D4
:1001F0003183208345960C94C002CF93DF93EC01AA
:100200000E94F500CE01DF91CF910C94AF05CF9302
:10021000DF93EC0165966FEFCE010E943A05CE01A7
:100220000E94D402CE01DF91CF910C94580361302B
:10023000710539F06230710541F040E060E08FEF08
:1002400007C04FEF60E080E003C040EC60EC80EC62
:100250000C942D05862F40E060E00C942D05CF9383
:10026000DF93EC0118861A86198682E090E09E875B
:100270008D876FEF70E0CE010E942A01698B7A8B27
:100280008B8B9C8BCE0145960E9436059B838A837F
:10029000DF91CF910895EF92FF920F931F93CF9329
:1002A000DF93EC017B0180E191E09983888381E019
:1002B00090E09D838C831F821E828BE090E09C8760
:1002C0008B871E861D86188A1F868E010B5E1F4F28
:1002D000C8010E94A90285E1F701D80101900D92A1
:1002E0008A95E1F7CE01DF91CF911F910F91FF9099
:1002F000EF900C942F012F923F924F925F926F924A
:100300007F928F929F92AF92BF92CF92DF92EF92A5
:10031000FF920F931F93CF93DF9300D000D000D0B4
:10032000CDB7DEB77C01CB0168EC70E00E942E07F0
:10033000892B09F0F5C0C70145969E838D830E94E5
:100340003605BC0180E090E00E947B057A836983DA
:100350008D819E810E943605BC0180E090E00E9464
:100360007B057C836B838D819E810E943605BC0159
:1003700080E090E00E947B051B018D819E810E94A0
:100380003605BC0180E090E00E947B054B018D8129
:100390009E810E943605BC0180E090E00E947B05B2
:1003A0006B018D819E810E943605BC0180E090E04A
:1003B0000E947B055B01F7018185928504968F3F42
:1003C000910509F01CF49287818703C0F70112861A
:1003D0001186612C712C8D819E810E9436056816D4
:1003E000790660F400E020E040E4B3018D819E8155
:1003F0000E947404FFEF6F1A7F0AEDCF00E010E057
:100400008D819E810E9436050817190708F06CC07F
:1004100089819A810817190791F0EB81FC810E17E9
:100420001F0769F00215130551F00815190539F079
:100430000C151D0521F00A151B0509F052C062E0DC
:1004400070E080E090E00E947B05C7010E941701E8
:100450002B013C019B01AC01B8018D819E810E9462
:10046000C8048D819E810E943605BC01C801019699
:100470000E941A07A3019201BC018D819E810E94F6
:10048000C8048D819E810E943605BC01C801029678
:100490000E941A07A3019201BC018D819E810E94D6
:1004A000C8048D819E810E943605BC01C801039657
:1004B0000E941A07A3019201BC018D819E810E94B6
:1004C000C8048D819E810E943605BC01C801049636
:1004D0000E941A07A3019201BC018D819E810E9496
:1004E000C8040F5F1F4F8CCF8D819E8126960FB65B
:1004F000F894DEBF0FBECDBFDF91CF911F910F915A
:10050000FF90EF90DF90CF90BF90AF909F908F9033
:100510007F906F905F904F903F902F900C94580376
:1005200026960FB6F894DEBF0FBECDBFDF91CF91F8
:100530001F910F91FF90EF90DF90CF90BF90AF9001
:100540009F908F907F906F905F904F903F902F90F3
:100550000895FC0181E0808311821382128215824A
:1005600014829FEF968317821186108682871386E6
:1005700092E09487858716861786108A118A0895D7
:10058000CF93DF93EC0188859985009711F00E9445
:100590003B088E8187FD05C060E0DF91CF910C9410
:1005A000AA06DF91CF910895CF93DF93EC018E815E
:1005B00087FD07C061E00E94AA0660E08E810E946C
:1005C000E30681E08983DF91CF910895EF92FF9256
:1005D0000F931F93CF93DF93EC017B01888599855F
:1005E000009711F00E943B089D858A85981303C0EF
:1005F00083E090E002C084E090E08E9D80018F9DBA
:10060000100D9E9D100D11241D830C83C8010E94A6
:10061000A30799878887009741F0A80160E070E000
:100620000E942709FB82EA8204C01D821C821B8271
:100630001A82DF91CF911F910F91FF90EF90089553
:10064000FC0121E095858285981320E0CB0136E0FE
:10065000969587953A95E1F7482F43704587CB01EA
:1006600054E0969587955A95E1F7382F3370328785
:10067000CB01969587959695879583708387862F6E
:100680008370848781E06F3F710511F008F080E08E
:10069000808380859185892B51F091E0431390E010
:1006A000921729F062817381CF010C94E6020895BC
:1006B000CF92DF92EF92FF920F931F93CF93DF932E
:1006C000CDB7DEB729970FB6F894DEBF0FBECDBF0A
:1006D0008C01DC0118968D919C911997892B09F456
:1006E0009AC00E94FB05F801C684D784E088F1888F
:1006F0006C197D098E099F09623371058105910589
:1007000080F3F894848195819A838983A085B1854B
:100710007D01EFEFEE1AFE0A8C918987D8019C913A
:1007200052960D90BC91A02DF8018489992309F46B
:100730002EC09C91982B98879C91809589238F83BC
:100740008F818E8388E08D8358856F8149853D81B7
:100750002E8189819A81F7015C9347FD252F3A9577
:100760002C93262F39F0441F00C000006C9300002A
:1007700000C0F2CF38E041916C930000019761F71F
:10078000F801B38BA28B49873D832E8338C09C919F
:10079000982B98879C91809589238F838F818C8358
:1007A00088E08B8358856F8149853B812C818981C5
:1007B0009A81F7015C9347FD252F00C000C02C9360
:1007C00000C000C000C000C000C06C930000262F15
:1007D0003A9541F0441F000000C000C000C000C0B6
:1007E00000C0E8CF38E0419100C06C9300C0019791
:1007F00009F7F801B38BA28B49873B832C839A833B
:10080000898378940E94FB05D8011E966D937D9391
:100810008D939C93519729960FB6F894DEBF0FBE27
:10082000CDBFDF91CF911F910F91FF90EF90DF909F
:10083000CF9008951F93CF93DF93EC01162F8981FA
:10084000882331F08E8187FD03C060E00E94AA06F4
:100850001E838981882341F061E0812F0E94AA06CE
:1008600060E0812F0E94E306812F90E0FC01E057B9
:10087000FF4FE491F0E0EE0FFF1FEC55FF4F259185
:1008800034913B8B2A8BFC01E458FF4F84918C8B75
:10089000DF91CF911F910895EF92FF920F931F93D5
:1008A000CF93DF931F92CDB7DEB77C018B01FC01A4
:1008B000118217821186108616861786108A118A71
:1008C000B90149830E942003B801C7010E94E602D2
:1008D0004981642FC7010F90DF91CF911F910F9134
:1008E000FF90EF900C941A040F931F93CF93DF9314
:1008F000DC0112968D919C9113976817790708F087
:1009000042C017968C911797882361F0489FA001E9
:100910001124452F289F90011124232F089F800127
:100920001124012F1D963C911D971A965C911A97E0
:1009300018968D919C911997FB01351307C0EE0F06
:10094000FF1FE60FF71FE80FF91F0AC0EE0FFF1F8A
:10095000EE0FFF1FE80FF91FEF01C30FD11D188223
:100960001A968C911A97EF01C80FD11D48831B96D8
:100970008C911B97EF01C80FD11D28831C968C9179
:10098000E80FF11D0083DF91CF911F910F91089522
:10099000CF92DF92EF92FF920F931F93CF93DF934B
:1009A000FC01828193816817790708F04DC0CA0164
:1009B000AA27BB27182FC32ED42EE52EFF24DC2D0B
:1009C000C22F0781002361F0809FC0011124192FDD
:1009D000C09E60011124DD2D209FC0011124C92F6C
:1009E000F5848285A085B185F81208C0CB01880FF7
:1009F000991F860F971F8A0F9B1F17C0CB01880F67
:100A0000991F880F991F8A0F9B1F452F552766270F
:100A10007727DC01AF0DB11D002329F0409F900125
:100A20001124232F01C0242F2C932285DC01A20F37
:100A3000B11D1C932385DC01A20FB11DDC9324851D
:100A4000FC01E20FF11DC083DF91CF911F910F9147
:100A5000FF90EF90DF90CF900895962F50E060E0E8
:100A600070E0592B682BCB01BA010895FC018281FB
:100A700093810895FF920F931F93CF93DF93EC011F
:100A8000FF24F394F60E2F81F21679F1088519856B
:100A90002150B9F06F3F59F430E040E050E06FEF83
:100AA0007FEF80E090E00E946407B9010CC08F2DB9
:100AB00090E0982F88270197622F70E00E941A0714
:100AC00002C060E070E0F8018C819D81AF01401BA5
:100AD000510B4817590740F44081469FC001479F7A
:100AE000900D11249193F0CFFF82DF91CF911F9150
:100AF0000F91FF900895CF93DF9300D000D0CDB732
:100B0000DEB79B01AC01611571058105910569F0A6
:100B100069833A834B835C830E94190929813A8156
:100B20004B815C810E94640703C060E070E0CB01F0
:100B30000F900F900F900F90DF91CF91089508952F
:100B40000E9446060E949F050E948800C0E0D0E0F7
:100B50000E949A002097E1F30E940000F9CF0C94C4
:100B60003B081F920F920FB60F9211242F933F93C1
:100B70008F939F93AF93BF938091560190915701AC
:100B8000A0915801B09159013091550123E0230FF4
:100B90002D3720F40196A11DB11D05C026E8230FB5
:100BA0000296A11DB11D209355018093560190938B
:100BB0005701A0935801B093590180915A01909127
:100BC0005B01A0915C01B0915D010196A11DB11D79
:100BD00080935A0190935B01A0935C01B0935D01F7
:100BE000BF91AF919F918F913F912F910F900FBE29
:100BF0000F901F9018953FB7F89480915A019091EB
:100C00005B01A0915C01B0915D0126B5A89B05C078
:100C10002F3F19F00196A11DB11D3FBF6627782F08
:100C2000892F9A2F620F711D811D911D42E0660F61
:100C3000771F881F991F4A95D1F70895CF92DF92A9
:100C4000EF92FF92CF93DF936B017C010E94FB0533
:100C5000EB01C114D104E104F10489F00E941907E9
:100C60000E94FB056C1B7D0B683E734090F381E096
:100C7000C81AD108E108F108C851DC4FEACFDF916A
:100C8000CF91FF90EF90DF90CF900895789484B546
:100C9000826084BD84B5816084BD85B5826085BD78
:100CA00085B5816085BDEEE6F0E08081816080835E
:100CB000E1E8F0E010828081826080838081816041
:100CC0008083E0E8F0E0808181608083E1EBF0E008
:100CD000808184608083E0EBF0E0808181608083AC
:100CE000EAE7F0E080818460808380818260808395
:100CF0008081816080838081806880831092C100C0
:100D00000895833081F028F4813099F08230A1F089
:100D100008958730A9F08830B9F08430D1F48091FB
:100D200080008F7D03C0809180008F77809380004A
:100D3000089584B58F7702C084B58F7D84BD0895F2
:100D40008091B0008F7703C08091B0008F7D809339
:100D5000B0000895CF93DF9390E0FC01E458FF4F7B
:100D60002491FC01E057FF4F8491882349F190E0E2
:100D7000880F991FFC01E255FF4FA591B4918C5546
:100D80009F4FFC01C591D4919FB7611108C0F894A1
:100D90008C91209582238C93888182230AC06230B3
:100DA00051F4F8948C91322F309583238C93888161
:100DB000822B888304C0F8948C91822B8C939FBFE4
:100DC000DF91CF9108950F931F93CF93DF931F92DD
:100DD000CDB7DEB7282F30E0F901E859FF4F8491F5
:100DE000F901E458FF4F1491F901E057FF4F0491C6
:100DF0000023C9F0882321F069830E94810669815C
:100E0000E02FF0E0EE0FFF1FEC55FF4FA591B491DE
:100E10009FB7F8948C91611103C01095812301C094
:100E2000812B8C939FBF0F90DF91CF911F910F91DA
:100E300008950895AA1BBB1B51E107C0AA1FBB1F41
:100E4000A617B70710F0A61BB70B881F991F5A9556
:100E5000A9F780959095BC01CD01089597FB072EC9
:100E600016F4009407D077FD09D00E941A0707FCFA
:100E700005D03EF4909581959F4F089570956195AA
:100E80007F4F0895A1E21A2EAA1BBB1BFD010DC0C6
:100E9000AA1FBB1FEE1FFF1FA217B307E407F5072A
:100EA00020F0A21BB30BE40BF50B661F771F881F06
:100EB000991F1A9469F760957095809590959B019C
:100EC000AC01BD01CF010895052E97FB1EF40094DF
:100ED0000E947B0757FD07D00E94420707FC03D002
:100EE0004EF40C947B0750954095309521953F4FDB
:100EF0004F4F5F4F089590958095709561957F4F06
:100F00008F4F9F4F08950E949407A59F900DB49F07
:100F1000900DA49F800D911D11240895EE0FFF1FC9
:100F20000590F491E02D0994A29FB001B39FC001F8
:100F3000A39F700D811D1124911DB29F700D811D05
:100F40001124911D0895CF93DF938230910510F401
:100F500082E090E0E0916001F091610120E030E0FA
:100F6000A0E0B0E0309739F140815181481759072E
:100F7000B8F04817590771F482819381109729F0CE
:100F800013969C938E9312972CC09093610180933B
:100F9000600127C02115310531F04217530718F0C1
:100FA000A901DB0101C0EF019A01BD01DF0102804F
:100FB000F381E02DD7CF21153105F9F0281B390B2E
:100FC0002430310580F48A819B816115710521F0FF
:100FD000FB019383828304C090936101809360013D
:100FE000FE01329644C0FE01E20FF31F81939193FC
:100FF00022503109398328833AC020915E01309113
:101000005F01232B41F420910201309103013093C1
:101010005F0120935E0120910001309101012115B3
:10102000310541F42DB73EB74091040150910501BF
:10103000241B350BE0915E01F0915F01E217F3078D
:10104000A0F42E1B3F0B2817390778F0AC014E5F38
:101050005F4F2417350748F04E0F5F1F50935F0115
:1010600040935E018193919302C0E0E0F0E0CF01F4
:10107000DF91CF910895CF93DF93009709F487C054
:10108000FC01329713821282C0916001D0916101FC
:10109000209781F420813181280F391F80915E01D2
:1010A00090915F018217930779F5F0935F01E093C8
:1010B0005E016DC0DE0120E030E0AE17BF0750F4E6
:1010C00012964D915C9113979D014115510509F1BF
:1010D000DA01F3CFB383A28340815181840F951F3E
:1010E0008A179B0771F48D919C911197840F951F1E
:1010F00002969183808312968D919C91139793838E
:1011000082832115310529F4F0936101E093600198
:101110003EC0D9011396FC93EE9312974D915D91C9
:10112000A40FB51FEA17FB0779F480819181840F22
:10113000951F0296D90111969C938E93828193817B
:1011400013969C938E931297E0E0F0E08A819B8146
:10115000009719F0FE01EC01F9CFCE01029628812B
:101160003981820F931F20915E0130915F01281712
:10117000390769F4309729F41092610110926001E7
:1011800002C013821282D0935F01C0935E01DF918F
:10119000CF9108958F929F92AF92BF92CF92DF929C
:1011A000EF92FF92CF93DF93EC01688179818A817E
:1011B0009B81611571058105910521F464E279ED4A
:1011C0008BE597E02DE133EF41E050E00E946407AA
:1011D00049015A019B01AC01A7EAB1E40E948307CF
:1011E0006B017C01ACEEB4EFA50194010E943109C2
:1011F000C60ED71EE81EF91EF7FE06C081E0C81A0B
:10120000D108E10880E8F80AC882D982EA82FB8224
:10121000C701B6019F77DF91CF91FF90EF90DF90EC
:10122000CF90BF90AF909F908F9008950E94CA0872
:10123000089586E091E00E94CA080895609306012F
:101240007093070180930801909309010895DC01D0
:1012500001C06D9341505040E0F70895B7FF0C94E2
:1012600083070E948307821B930B089510E0CAEB4B
:10127000D0E004C0FE010E9490072296CC3BD1072B
:06128000C9F7F894FFCF4E
:10128600000062018000010000001900000000005B
:04129600F500FD0062
:00000001FF
